{
  "contractName": "KingPinNFT",
  "abi": [
    {
      "inputs": [
        {
          "internalType": "string",
          "name": "name",
          "type": "string"
        },
        {
          "internalType": "string",
          "name": "symbol",
          "type": "string"
        }
      ],
      "stateMutability": "nonpayable",
      "type": "constructor"
    },
    {
      "anonymous": false,
      "inputs": [
        {
          "indexed": false,
          "internalType": "address",
          "name": "owner",
          "type": "address"
        },
        {
          "indexed": false,
          "internalType": "bool",
          "name": "eligibility",
          "type": "bool"
        }
      ],
      "name": "AirdropEligibilityUpdated",
      "type": "event"
    },
    {
      "anonymous": false,
      "inputs": [
        {
          "indexed": true,
          "internalType": "address",
          "name": "owner",
          "type": "address"
        },
        {
          "indexed": true,
          "internalType": "address",
          "name": "approved",
          "type": "address"
        },
        {
          "indexed": true,
          "internalType": "uint256",
          "name": "tokenId",
          "type": "uint256"
        }
      ],
      "name": "Approval",
      "type": "event"
    },
    {
      "anonymous": false,
      "inputs": [
        {
          "indexed": true,
          "internalType": "address",
          "name": "owner",
          "type": "address"
        },
        {
          "indexed": true,
          "internalType": "address",
          "name": "operator",
          "type": "address"
        },
        {
          "indexed": false,
          "internalType": "bool",
          "name": "approved",
          "type": "bool"
        }
      ],
      "name": "ApprovalForAll",
      "type": "event"
    },
    {
      "anonymous": false,
      "inputs": [
        {
          "indexed": true,
          "internalType": "address",
          "name": "previousOwner",
          "type": "address"
        },
        {
          "indexed": true,
          "internalType": "address",
          "name": "newOwner",
          "type": "address"
        }
      ],
      "name": "OwnershipTransferred",
      "type": "event"
    },
    {
      "anonymous": false,
      "inputs": [
        {
          "indexed": true,
          "internalType": "address",
          "name": "from",
          "type": "address"
        },
        {
          "indexed": true,
          "internalType": "address",
          "name": "to",
          "type": "address"
        },
        {
          "indexed": true,
          "internalType": "uint256",
          "name": "tokenId",
          "type": "uint256"
        }
      ],
      "name": "Transfer",
      "type": "event"
    },
    {
      "inputs": [],
      "name": "NFTCount",
      "outputs": [
        {
          "internalType": "uint256",
          "name": "",
          "type": "uint256"
        }
      ],
      "stateMutability": "view",
      "type": "function"
    },
    {
      "inputs": [
        {
          "internalType": "address",
          "name": "to",
          "type": "address"
        },
        {
          "internalType": "uint256",
          "name": "tokenId",
          "type": "uint256"
        }
      ],
      "name": "approve",
      "outputs": [],
      "stateMutability": "nonpayable",
      "type": "function"
    },
    {
      "inputs": [
        {
          "internalType": "address",
          "name": "owner",
          "type": "address"
        }
      ],
      "name": "balanceOf",
      "outputs": [
        {
          "internalType": "uint256",
          "name": "",
          "type": "uint256"
        }
      ],
      "stateMutability": "view",
      "type": "function"
    },
    {
      "inputs": [
        {
          "internalType": "uint256",
          "name": "tokenId",
          "type": "uint256"
        }
      ],
      "name": "getApproved",
      "outputs": [
        {
          "internalType": "address",
          "name": "",
          "type": "address"
        }
      ],
      "stateMutability": "view",
      "type": "function"
    },
    {
      "inputs": [
        {
          "internalType": "address",
          "name": "owner",
          "type": "address"
        },
        {
          "internalType": "address",
          "name": "operator",
          "type": "address"
        }
      ],
      "name": "isApprovedForAll",
      "outputs": [
        {
          "internalType": "bool",
          "name": "",
          "type": "bool"
        }
      ],
      "stateMutability": "view",
      "type": "function"
    },
    {
      "inputs": [],
      "name": "name",
      "outputs": [
        {
          "internalType": "string",
          "name": "",
          "type": "string"
        }
      ],
      "stateMutability": "view",
      "type": "function"
    },
    {
      "inputs": [],
      "name": "owner",
      "outputs": [
        {
          "internalType": "address",
          "name": "",
          "type": "address"
        }
      ],
      "stateMutability": "view",
      "type": "function"
    },
    {
      "inputs": [
        {
          "internalType": "uint256",
          "name": "tokenId",
          "type": "uint256"
        }
      ],
      "name": "ownerOf",
      "outputs": [
        {
          "internalType": "address",
          "name": "",
          "type": "address"
        }
      ],
      "stateMutability": "view",
      "type": "function"
    },
    {
      "inputs": [],
      "name": "renounceOwnership",
      "outputs": [],
      "stateMutability": "nonpayable",
      "type": "function"
    },
    {
      "inputs": [
        {
          "internalType": "address",
          "name": "from",
          "type": "address"
        },
        {
          "internalType": "address",
          "name": "to",
          "type": "address"
        },
        {
          "internalType": "uint256",
          "name": "tokenId",
          "type": "uint256"
        }
      ],
      "name": "safeTransferFrom",
      "outputs": [],
      "stateMutability": "nonpayable",
      "type": "function"
    },
    {
      "inputs": [
        {
          "internalType": "address",
          "name": "from",
          "type": "address"
        },
        {
          "internalType": "address",
          "name": "to",
          "type": "address"
        },
        {
          "internalType": "uint256",
          "name": "tokenId",
          "type": "uint256"
        },
        {
          "internalType": "bytes",
          "name": "data",
          "type": "bytes"
        }
      ],
      "name": "safeTransferFrom",
      "outputs": [],
      "stateMutability": "nonpayable",
      "type": "function"
    },
    {
      "inputs": [
        {
          "internalType": "address",
          "name": "operator",
          "type": "address"
        },
        {
          "internalType": "bool",
          "name": "approved",
          "type": "bool"
        }
      ],
      "name": "setApprovalForAll",
      "outputs": [],
      "stateMutability": "nonpayable",
      "type": "function"
    },
    {
      "inputs": [
        {
          "internalType": "bytes4",
          "name": "interfaceId",
          "type": "bytes4"
        }
      ],
      "name": "supportsInterface",
      "outputs": [
        {
          "internalType": "bool",
          "name": "",
          "type": "bool"
        }
      ],
      "stateMutability": "view",
      "type": "function"
    },
    {
      "inputs": [],
      "name": "symbol",
      "outputs": [
        {
          "internalType": "string",
          "name": "",
          "type": "string"
        }
      ],
      "stateMutability": "view",
      "type": "function"
    },
    {
      "inputs": [
        {
          "internalType": "uint256",
          "name": "tokenId",
          "type": "uint256"
        }
      ],
      "name": "tokenURI",
      "outputs": [
        {
          "internalType": "string",
          "name": "",
          "type": "string"
        }
      ],
      "stateMutability": "view",
      "type": "function"
    },
    {
      "inputs": [
        {
          "internalType": "address",
          "name": "newOwner",
          "type": "address"
        }
      ],
      "name": "transferOwnership",
      "outputs": [],
      "stateMutability": "nonpayable",
      "type": "function"
    },
    {
      "inputs": [
        {
          "internalType": "address",
          "name": "to",
          "type": "address"
        },
        {
          "internalType": "string",
          "name": "data",
          "type": "string"
        }
      ],
      "name": "mint",
      "outputs": [],
      "stateMutability": "payable",
      "type": "function"
    },
    {
      "inputs": [
        {
          "internalType": "address",
          "name": "from",
          "type": "address"
        },
        {
          "internalType": "address",
          "name": "to",
          "type": "address"
        },
        {
          "internalType": "uint256",
          "name": "tokenId",
          "type": "uint256"
        }
      ],
      "name": "transferFrom",
      "outputs": [],
      "stateMutability": "nonpayable",
      "type": "function"
    },
    {
      "inputs": [
        {
          "internalType": "address",
          "name": "adrs",
          "type": "address"
        }
      ],
      "name": "getEligibility",
      "outputs": [
        {
          "internalType": "bool",
          "name": "",
          "type": "bool"
        }
      ],
      "stateMutability": "view",
      "type": "function"
    },
    {
      "inputs": [
        {
          "internalType": "address[]",
          "name": "recipients",
          "type": "address[]"
        }
      ],
      "name": "airdrop",
      "outputs": [],
      "stateMutability": "nonpayable",
      "type": "function"
    }
  ],
  "bytecode": "0x608060405260006007553480156200001657600080fd5b5060405162001c6638038062001c6683398101604081905262000039916200023c565b81518290829062000052906000906020850190620000e3565b50805162000068906001906020840190620000e3565b505050620000856200007f6200008d60201b60201c565b62000091565b5050620002f6565b3390565b600680546001600160a01b038381166001600160a01b0319831681179093556040519116919082907f8be0079c531659141344cd1fd0a4f28419497f9722a3daafe3b4186f6b6457e090600090a35050565b828054620000f190620002a3565b90600052602060002090601f01602090048101928262000115576000855562000160565b82601f106200013057805160ff191683800117855562000160565b8280016001018555821562000160579182015b828111156200016057825182559160200191906001019062000143565b506200016e92915062000172565b5090565b5b808211156200016e576000815560010162000173565b600082601f8301126200019a578081fd5b81516001600160401b0380821115620001b757620001b7620002e0565b604051601f8301601f19908116603f01168101908282118183101715620001e257620001e2620002e0565b81604052838152602092508683858801011115620001fe578485fd5b8491505b8382101562000221578582018301518183018401529082019062000202565b838211156200023257848385830101525b9695505050505050565b600080604083850312156200024f578182fd5b82516001600160401b038082111562000266578384fd5b620002748683870162000189565b935060208501519150808211156200028a578283fd5b50620002998582860162000189565b9150509250929050565b600181811c90821680620002b857607f821691505b60208210811415620002da57634e487b7160e01b600052602260045260246000fd5b50919050565b634e487b7160e01b600052604160045260246000fd5b61196080620003066000396000f3fe60806040526004361061011f5760003560e01c80638da5cb5b116100a0578063cb7728ea11610064578063cb7728ea1461032b578063d0def52114610341578063dca11ab814610354578063e985e9c51461038d578063f2fde38b146103d657600080fd5b80638da5cb5b1461029857806395d89b41146102b6578063a22cb465146102cb578063b88d4fde146102eb578063c87b56dd1461030b57600080fd5b806342842e0e116100e757806342842e0e146101f55780636352211e1461021557806370a0823114610235578063715018a614610263578063729ad39e1461027857600080fd5b806301ffc9a71461012457806306fdde0314610159578063081812fc1461017b578063095ea7b3146101b357806323b872dd146101d5575b600080fd5b34801561013057600080fd5b5061014461013f366004611691565b6103f6565b60405190151581526020015b60405180910390f35b34801561016557600080fd5b5061016e610448565b6040516101509190611779565b34801561018757600080fd5b5061019b6101963660046116c9565b6104da565b6040516001600160a01b039091168152602001610150565b3480156101bf57600080fd5b506101d36101ce3660046115f8565b610501565b005b3480156101e157600080fd5b506101d36101f03660046114ab565b61061c565b34801561020157600080fd5b506101d36102103660046114ab565b61067c565b34801561022157600080fd5b5061019b6102303660046116c9565b610697565b34801561024157600080fd5b5061025561025036600461145f565b6106f7565b604051908152602001610150565b34801561026f57600080fd5b506101d361077d565b34801561028457600080fd5b506101d3610293366004611621565b610791565b3480156102a457600080fd5b506006546001600160a01b031661019b565b3480156102c257600080fd5b5061016e61090f565b3480156102d757600080fd5b506101d36102e636600461155f565b61091e565b3480156102f757600080fd5b506101d36103063660046114e6565b61092d565b34801561031757600080fd5b5061016e6103263660046116c9565b610965565b34801561033757600080fd5b5061025560075481565b6101d361034f366004611599565b6109d9565b34801561036057600080fd5b5061014461036f36600461145f565b6001600160a01b031660009081526008602052604090205460ff1690565b34801561039957600080fd5b506101446103a8366004611479565b6001600160a01b03918216600090815260056020908152604080832093909416825291909152205460ff1690565b3480156103e257600080fd5b506101d36103f136600461145f565b610a77565b60006001600160e01b031982166380ac58cd60e01b148061042757506001600160e01b03198216635b5e139f60e01b145b8061044257506301ffc9a760e01b6001600160e01b03198316145b92915050565b6060600080546104579061189c565b80601f01602080910402602001604051908101604052809291908181526020018280546104839061189c565b80156104d05780601f106104a5576101008083540402835291602001916104d0565b820191906000526020600020905b8154815290600101906020018083116104b357829003601f168201915b5050505050905090565b60006104e582610af0565b506000908152600460205260409020546001600160a01b031690565b600061050c82610697565b9050806001600160a01b0316836001600160a01b0316141561057f5760405162461bcd60e51b815260206004820152602160248201527f4552433732313a20617070726f76616c20746f2063757272656e74206f776e656044820152603960f91b60648201526084015b60405180910390fd5b336001600160a01b038216148061059b575061059b81336103a8565b61060d5760405162461bcd60e51b815260206004820152603d60248201527f4552433732313a20617070726f76652063616c6c6572206973206e6f7420746f60448201527f6b656e206f776e6572206f7220617070726f76656420666f7220616c6c0000006064820152608401610576565b6106178383610b4f565b505050565b610625836106f7565b6001141561064e576001600160a01b0383166000908152600860205260409020805460ff191690555b6001600160a01b0382166000908152600860205260409020805460ff19166001179055610617838383610bbd565b6106178383836040518060200160405280600081525061092d565b6000818152600260205260408120546001600160a01b0316806104425760405162461bcd60e51b8152602060048201526018602482015277115490cdcc8c4e881a5b9d985b1a59081d1bdad95b88125160421b6044820152606401610576565b60006001600160a01b0382166107615760405162461bcd60e51b815260206004820152602960248201527f4552433732313a2061646472657373207a65726f206973206e6f7420612076616044820152683634b21037bbb732b960b91b6064820152608401610576565b506001600160a01b031660009081526003602052604090205490565b610785610bee565b61078f6000610c48565b565b610799610bee565b806107dc5760405162461bcd60e51b8152602060048201526013602482015272726563697069656e747320697320656d70747960681b6044820152606401610576565b60005b8181101561061757600083838381811061080957634e487b7160e01b600052603260045260246000fd5b905060200201602081019061081e919061145f565b6001600160a01b03811660009081526008602052604090205490915060ff166108945760405162461bcd60e51b815260206004820152602260248201527f726563657069656e74206e6f7420656c696769626c6520666f7220616972647260448201526106f760f41b6064820152608401610576565b600780549060006108a4836118d7565b91905055506108de816007546040518060400160405280601081526020016f736f6d652072616e646f6d206461746160801b815250610c9a565b6001600160a01b03166000908152600860205260409020805460ff1916905580610907816118d7565b9150506107df565b6060600180546104579061189c565b610929338383610ccd565b5050565b6109373383610d9c565b6109535760405162461bcd60e51b81526004016105769061178c565b61095f84848484610e1b565b50505050565b606061097082610af0565b600061098760408051602081019091526000815290565b905060008151116109a757604051806020016040528060008152506109d2565b806109b184610e4e565b6040516020016109c292919061170d565b6040516020818303038152906040525b9392505050565b346706f05b59d3b2000014610a305760405162461bcd60e51b815260206004820152601c60248201527f496e76616c696420616d6f756e74206f662045746865722073656e74000000006044820152606401610576565b60078054906000610a40836118d7565b9190505550610a528260075483610c9a565b506001600160a01b03166000908152600860205260409020805460ff19166001179055565b610a7f610bee565b6001600160a01b038116610ae45760405162461bcd60e51b815260206004820152602660248201527f4f776e61626c653a206e6577206f776e657220697320746865207a65726f206160448201526564647265737360d01b6064820152608401610576565b610aed81610c48565b50565b6000818152600260205260409020546001600160a01b0316610aed5760405162461bcd60e51b8152602060048201526018602482015277115490cdcc8c4e881a5b9d985b1a59081d1bdad95b88125160421b6044820152606401610576565b600081815260046020526040902080546001600160a01b0319166001600160a01b0384169081179091558190610b8482610697565b6001600160a01b03167f8c5be1e5ebec7d5bd14f71427d1e84f3dd0314c0f7b2291e5b200ac8c7c3b92560405160405180910390a45050565b610bc73382610d9c565b610be35760405162461bcd60e51b81526004016105769061178c565b610617838383610ef9565b6006546001600160a01b0316331461078f5760405162461bcd60e51b815260206004820181905260248201527f4f776e61626c653a2063616c6c6572206973206e6f7420746865206f776e65726044820152606401610576565b600680546001600160a01b038381166001600160a01b0319831681179093556040519116919082907f8be0079c531659141344cd1fd0a4f28419497f9722a3daafe3b4186f6b6457e090600090a35050565b610ca4838361105d565b610cb160008484846111e8565b6106175760405162461bcd60e51b8152600401610576906117d9565b816001600160a01b0316836001600160a01b03161415610d2f5760405162461bcd60e51b815260206004820152601960248201527f4552433732313a20617070726f766520746f2063616c6c6572000000000000006044820152606401610576565b6001600160a01b03838116600081815260056020908152604080832094871680845294825291829020805460ff191686151590811790915591519182527f17307eab39ab6107e8899845ad3d59bd9653f200f220920489ca2b5937696c31910160405180910390a3505050565b600080610da883610697565b9050806001600160a01b0316846001600160a01b03161480610def57506001600160a01b0380821660009081526005602090815260408083209388168352929052205460ff165b80610e135750836001600160a01b0316610e08846104da565b6001600160a01b0316145b949350505050565b610e26848484610ef9565b610e32848484846111e8565b61095f5760405162461bcd60e51b8152600401610576906117d9565b60606000610e5b836112f5565b600101905060008167ffffffffffffffff811115610e8957634e487b7160e01b600052604160045260246000fd5b6040519080825280601f01601f191660200182016040528015610eb3576020820181803683370190505b5090508181016020015b600019016f181899199a1a9b1b9c1cb0b131b232b360811b600a86061a8153600a8504945084610eec57610ef1565b610ebd565b509392505050565b826001600160a01b0316610f0c82610697565b6001600160a01b031614610f325760405162461bcd60e51b81526004016105769061182b565b6001600160a01b038216610f945760405162461bcd60e51b8152602060048201526024808201527f4552433732313a207472616e7366657220746f20746865207a65726f206164646044820152637265737360e01b6064820152608401610576565b826001600160a01b0316610fa782610697565b6001600160a01b031614610fcd5760405162461bcd60e51b81526004016105769061182b565b600081815260046020908152604080832080546001600160a01b03199081169091556001600160a01b0387811680865260038552838620805460001901905590871680865283862080546001019055868652600290945282852080549092168417909155905184937fddf252ad1be2c89b69c2b068fc378daa952ba7f163c4a11628f55a4df523b3ef91a4505050565b6001600160a01b0382166110b35760405162461bcd60e51b815260206004820181905260248201527f4552433732313a206d696e7420746f20746865207a65726f20616464726573736044820152606401610576565b6000818152600260205260409020546001600160a01b0316156111185760405162461bcd60e51b815260206004820152601c60248201527f4552433732313a20746f6b656e20616c7265616479206d696e746564000000006044820152606401610576565b6000818152600260205260409020546001600160a01b03161561117d5760405162461bcd60e51b815260206004820152601c60248201527f4552433732313a20746f6b656e20616c7265616479206d696e746564000000006044820152606401610576565b6001600160a01b038216600081815260036020908152604080832080546001019055848352600290915280822080546001600160a01b0319168417905551839291907fddf252ad1be2c89b69c2b068fc378daa952ba7f163c4a11628f55a4df523b3ef908290a45050565b60006001600160a01b0384163b156112ea57604051630a85bd0160e11b81526001600160a01b0385169063150b7a029061122c90339089908890889060040161173c565b602060405180830381600087803b15801561124657600080fd5b505af1925050508015611276575060408051601f3d908101601f19168201909252611273918101906116ad565b60015b6112d0573d8080156112a4576040519150601f19603f3d011682016040523d82523d6000602084013e6112a9565b606091505b5080516112c85760405162461bcd60e51b8152600401610576906117d9565b805181602001fd5b6001600160e01b031916630a85bd0160e11b149050610e13565b506001949350505050565b60008072184f03e93ff9f4daa797ed6e38ed64bf6a1f0160401b83106113345772184f03e93ff9f4daa797ed6e38ed64bf6a1f0160401b830492506040015b6d04ee2d6d415b85acef81000000008310611360576d04ee2d6d415b85acef8100000000830492506020015b662386f26fc10000831061137e57662386f26fc10000830492506010015b6305f5e1008310611396576305f5e100830492506008015b61271083106113aa57612710830492506004015b606483106113bc576064830492506002015b600a83106104425760010192915050565b600067ffffffffffffffff808411156113e8576113e86118fe565b604051601f8501601f19908116603f01168101908282118183101715611410576114106118fe565b8160405280935085815286868601111561142957600080fd5b858560208301376000602087830101525050509392505050565b80356001600160a01b038116811461145a57600080fd5b919050565b600060208284031215611470578081fd5b6109d282611443565b6000806040838503121561148b578081fd5b61149483611443565b91506114a260208401611443565b90509250929050565b6000806000606084860312156114bf578081fd5b6114c884611443565b92506114d660208501611443565b9150604084013590509250925092565b600080600080608085870312156114fb578081fd5b61150485611443565b935061151260208601611443565b925060408501359150606085013567ffffffffffffffff811115611534578182fd5b8501601f81018713611544578182fd5b611553878235602084016113cd565b91505092959194509250565b60008060408385031215611571578182fd5b61157a83611443565b91506020830135801515811461158e578182fd5b809150509250929050565b600080604083850312156115ab578182fd5b6115b483611443565b9150602083013567ffffffffffffffff8111156115cf578182fd5b8301601f810185136115df578182fd5b6115ee858235602084016113cd565b9150509250929050565b6000806040838503121561160a578182fd5b61161383611443565b946020939093013593505050565b60008060208385031215611633578182fd5b823567ffffffffffffffff8082111561164a578384fd5b818501915085601f83011261165d578384fd5b81358181111561166b578485fd5b8660208260051b850101111561167f578485fd5b60209290920196919550909350505050565b6000602082840312156116a2578081fd5b81356109d281611914565b6000602082840312156116be578081fd5b81516109d281611914565b6000602082840312156116da578081fd5b5035919050565b600081518084526116f9816020860160208601611870565b601f01601f19169290920160200192915050565b6000835161171f818460208801611870565b835190830190611733818360208801611870565b01949350505050565b6001600160a01b038581168252841660208201526040810183905260806060820181905260009061176f908301846116e1565b9695505050505050565b6020815260006109d260208301846116e1565b6020808252602d908201527f4552433732313a2063616c6c6572206973206e6f7420746f6b656e206f776e6560408201526c1c881bdc88185c1c1c9bdd9959609a1b606082015260800190565b60208082526032908201527f4552433732313a207472616e7366657220746f206e6f6e20455243373231526560408201527131b2b4bb32b91034b6b83632b6b2b73a32b960711b606082015260800190565b60208082526025908201527f4552433732313a207472616e736665722066726f6d20696e636f72726563742060408201526437bbb732b960d91b606082015260800190565b60005b8381101561188b578181015183820152602001611873565b8381111561095f5750506000910152565b600181811c908216806118b057607f821691505b602082108114156118d157634e487b7160e01b600052602260045260246000fd5b50919050565b60006000198214156118f757634e487b7160e01b81526011600452602481fd5b5060010190565b634e487b7160e01b600052604160045260246000fd5b6001600160e01b031981168114610aed57600080fdfea2646970667358221220289ac35bb6bda1ca58b67afd377bedcd22e13e52eb2ac64c5a146b8143f215f064736f6c63430008040033",
  "immutableReferences": {},
  "source": "// SPDX-License-Identifier: MIT\r\npragma solidity ^0.8.4;\r\n\r\nimport \"@openzeppelin/contracts/token/ERC721/ERC721.sol\";\r\nimport \"@openzeppelin/contracts/access/Ownable.sol\";\r\n\r\ncontract KingPinNFT is ERC721, Ownable {\r\n    uint256 public NFTCount = 0;\r\n    mapping(address => bool) private _airdropEligibility;\r\n\r\n    event AirdropEligibilityUpdated(address owner, bool eligibility);\r\n\r\n    constructor(\r\n        string memory name,\r\n        string memory symbol\r\n    ) ERC721(name, symbol) {}\r\n\r\n    function mint(address to, string memory data) external payable {\r\n        require(msg.value == 0.5 ether, \"Invalid amount of Ether sent\");\r\n        NFTCount++;\r\n        _safeMint(to, NFTCount, bytes(data));\r\n        _airdropEligibility[to] = true;\r\n    }\r\n\r\n    function transferFrom(address from, address to, uint256 tokenId) public override {\r\n        if(balanceOf(from)==1){\r\n            _airdropEligibility[from] = false;\r\n        }\r\n        _airdropEligibility[to] = true;\r\n        super.transferFrom(from, to, tokenId);\r\n    }\r\n\r\n    function getEligibility(address adrs)public view returns(bool){\r\n        return _airdropEligibility[adrs];\r\n    }\r\n\r\n    function airdrop(address[] calldata recipients) external onlyOwner {\r\n        require(recipients.length > 0, \"recipients is empty\");\r\n        for (uint256 i = 0; i < recipients.length; i++) {\r\n            address recipient = recipients[i];\r\n            require(_airdropEligibility[recipient], \"recepient not eligible for airdrop\");\r\n            NFTCount++;\r\n            _safeMint(recipient, NFTCount, bytes(\"some random data\"));\r\n            _airdropEligibility[recipient] = false;\r\n        }\r\n    }\r\n}\r\n",
  "sourcePath": "C:\\Users\\alifa\\Downloads\\dapp\\kingpin_token\\contracts\\Kingpin.sol",
  "compiler": {
    "name": "solc",
    "version": "0.8.4+commit.c7e474f2.Emscripten.clang"
  },
  "schemaVersion": "3.4.14",
  "updatedAt": "2023-07-15T22:50:57.924Z",
  "devdoc": {
    "kind": "dev",
    "methods": {
      "approve(address,uint256)": {
        "details": "See {IERC721-approve}."
      },
      "balanceOf(address)": {
        "details": "See {IERC721-balanceOf}."
      },
      "getApproved(uint256)": {
        "details": "See {IERC721-getApproved}."
      },
      "isApprovedForAll(address,address)": {
        "details": "See {IERC721-isApprovedForAll}."
      },
      "name()": {
        "details": "See {IERC721Metadata-name}."
      },
      "owner()": {
        "details": "Returns the address of the current owner."
      },
      "ownerOf(uint256)": {
        "details": "See {IERC721-ownerOf}."
      },
      "renounceOwnership()": {
        "details": "Leaves the contract without owner. It will not be possible to call `onlyOwner` functions. Can only be called by the current owner. NOTE: Renouncing ownership will leave the contract without an owner, thereby disabling any functionality that is only available to the owner."
      },
      "safeTransferFrom(address,address,uint256)": {
        "details": "See {IERC721-safeTransferFrom}."
      },
      "safeTransferFrom(address,address,uint256,bytes)": {
        "details": "See {IERC721-safeTransferFrom}."
      },
      "setApprovalForAll(address,bool)": {
        "details": "See {IERC721-setApprovalForAll}."
      },
      "supportsInterface(bytes4)": {
        "details": "See {IERC165-supportsInterface}."
      },
      "symbol()": {
        "details": "See {IERC721Metadata-symbol}."
      },
      "tokenURI(uint256)": {
        "details": "See {IERC721Metadata-tokenURI}."
      },
      "transferFrom(address,address,uint256)": {
        "details": "See {IERC721-transferFrom}."
      },
      "transferOwnership(address)": {
        "details": "Transfers ownership of the contract to a new account (`newOwner`). Can only be called by the current owner."
      }
    },
    "version": 1
  },
  "userdoc": {
    "kind": "user",
    "methods": {},
    "version": 1
  }
}