{
  "contractName": "KingPinNFT",
  "abi": [
    {
      "inputs": [
        {
          "internalType": "string",
          "name": "name",
          "type": "string"
        },
        {
          "internalType": "string",
          "name": "symbol",
          "type": "string"
        }
      ],
      "stateMutability": "nonpayable",
      "type": "constructor"
    },
    {
      "anonymous": false,
      "inputs": [
        {
          "indexed": true,
          "internalType": "uint256",
          "name": "tokenId",
          "type": "uint256"
        },
        {
          "indexed": false,
          "internalType": "bool",
          "name": "eligibility",
          "type": "bool"
        }
      ],
      "name": "AirdropEligibilityUpdated",
      "type": "event"
    },
    {
      "anonymous": false,
      "inputs": [
        {
          "indexed": true,
          "internalType": "address",
          "name": "owner",
          "type": "address"
        },
        {
          "indexed": true,
          "internalType": "address",
          "name": "approved",
          "type": "address"
        },
        {
          "indexed": true,
          "internalType": "uint256",
          "name": "tokenId",
          "type": "uint256"
        }
      ],
      "name": "Approval",
      "type": "event"
    },
    {
      "anonymous": false,
      "inputs": [
        {
          "indexed": true,
          "internalType": "address",
          "name": "owner",
          "type": "address"
        },
        {
          "indexed": true,
          "internalType": "address",
          "name": "operator",
          "type": "address"
        },
        {
          "indexed": false,
          "internalType": "bool",
          "name": "approved",
          "type": "bool"
        }
      ],
      "name": "ApprovalForAll",
      "type": "event"
    },
    {
      "anonymous": false,
      "inputs": [
        {
          "indexed": true,
          "internalType": "address",
          "name": "previousOwner",
          "type": "address"
        },
        {
          "indexed": true,
          "internalType": "address",
          "name": "newOwner",
          "type": "address"
        }
      ],
      "name": "OwnershipTransferred",
      "type": "event"
    },
    {
      "anonymous": false,
      "inputs": [
        {
          "indexed": true,
          "internalType": "address",
          "name": "from",
          "type": "address"
        },
        {
          "indexed": true,
          "internalType": "address",
          "name": "to",
          "type": "address"
        },
        {
          "indexed": true,
          "internalType": "uint256",
          "name": "tokenId",
          "type": "uint256"
        }
      ],
      "name": "Transfer",
      "type": "event"
    },
    {
      "inputs": [
        {
          "internalType": "address",
          "name": "to",
          "type": "address"
        },
        {
          "internalType": "uint256",
          "name": "tokenId",
          "type": "uint256"
        }
      ],
      "name": "approve",
      "outputs": [],
      "stateMutability": "nonpayable",
      "type": "function"
    },
    {
      "inputs": [
        {
          "internalType": "address",
          "name": "owner",
          "type": "address"
        }
      ],
      "name": "balanceOf",
      "outputs": [
        {
          "internalType": "uint256",
          "name": "",
          "type": "uint256"
        }
      ],
      "stateMutability": "view",
      "type": "function",
      "constant": true
    },
    {
      "inputs": [
        {
          "internalType": "uint256",
          "name": "tokenId",
          "type": "uint256"
        }
      ],
      "name": "getApproved",
      "outputs": [
        {
          "internalType": "address",
          "name": "",
          "type": "address"
        }
      ],
      "stateMutability": "view",
      "type": "function",
      "constant": true
    },
    {
      "inputs": [
        {
          "internalType": "address",
          "name": "owner",
          "type": "address"
        },
        {
          "internalType": "address",
          "name": "operator",
          "type": "address"
        }
      ],
      "name": "isApprovedForAll",
      "outputs": [
        {
          "internalType": "bool",
          "name": "",
          "type": "bool"
        }
      ],
      "stateMutability": "view",
      "type": "function",
      "constant": true
    },
    {
      "inputs": [],
      "name": "name",
      "outputs": [
        {
          "internalType": "string",
          "name": "",
          "type": "string"
        }
      ],
      "stateMutability": "view",
      "type": "function",
      "constant": true
    },
    {
      "inputs": [],
      "name": "owner",
      "outputs": [
        {
          "internalType": "address",
          "name": "",
          "type": "address"
        }
      ],
      "stateMutability": "view",
      "type": "function",
      "constant": true
    },
    {
      "inputs": [
        {
          "internalType": "uint256",
          "name": "tokenId",
          "type": "uint256"
        }
      ],
      "name": "ownerOf",
      "outputs": [
        {
          "internalType": "address",
          "name": "",
          "type": "address"
        }
      ],
      "stateMutability": "view",
      "type": "function",
      "constant": true
    },
    {
      "inputs": [],
      "name": "renounceOwnership",
      "outputs": [],
      "stateMutability": "nonpayable",
      "type": "function"
    },
    {
      "inputs": [
        {
          "internalType": "address",
          "name": "from",
          "type": "address"
        },
        {
          "internalType": "address",
          "name": "to",
          "type": "address"
        },
        {
          "internalType": "uint256",
          "name": "tokenId",
          "type": "uint256"
        }
      ],
      "name": "safeTransferFrom",
      "outputs": [],
      "stateMutability": "nonpayable",
      "type": "function"
    },
    {
      "inputs": [
        {
          "internalType": "address",
          "name": "from",
          "type": "address"
        },
        {
          "internalType": "address",
          "name": "to",
          "type": "address"
        },
        {
          "internalType": "uint256",
          "name": "tokenId",
          "type": "uint256"
        },
        {
          "internalType": "bytes",
          "name": "data",
          "type": "bytes"
        }
      ],
      "name": "safeTransferFrom",
      "outputs": [],
      "stateMutability": "nonpayable",
      "type": "function"
    },
    {
      "inputs": [
        {
          "internalType": "address",
          "name": "operator",
          "type": "address"
        },
        {
          "internalType": "bool",
          "name": "approved",
          "type": "bool"
        }
      ],
      "name": "setApprovalForAll",
      "outputs": [],
      "stateMutability": "nonpayable",
      "type": "function"
    },
    {
      "inputs": [
        {
          "internalType": "bytes4",
          "name": "interfaceId",
          "type": "bytes4"
        }
      ],
      "name": "supportsInterface",
      "outputs": [
        {
          "internalType": "bool",
          "name": "",
          "type": "bool"
        }
      ],
      "stateMutability": "view",
      "type": "function",
      "constant": true
    },
    {
      "inputs": [],
      "name": "symbol",
      "outputs": [
        {
          "internalType": "string",
          "name": "",
          "type": "string"
        }
      ],
      "stateMutability": "view",
      "type": "function",
      "constant": true
    },
    {
      "inputs": [
        {
          "internalType": "uint256",
          "name": "tokenId",
          "type": "uint256"
        }
      ],
      "name": "tokenURI",
      "outputs": [
        {
          "internalType": "string",
          "name": "",
          "type": "string"
        }
      ],
      "stateMutability": "view",
      "type": "function",
      "constant": true
    },
    {
      "inputs": [
        {
          "internalType": "address",
          "name": "from",
          "type": "address"
        },
        {
          "internalType": "address",
          "name": "to",
          "type": "address"
        },
        {
          "internalType": "uint256",
          "name": "tokenId",
          "type": "uint256"
        }
      ],
      "name": "transferFrom",
      "outputs": [],
      "stateMutability": "nonpayable",
      "type": "function"
    },
    {
      "inputs": [
        {
          "internalType": "address",
          "name": "newOwner",
          "type": "address"
        }
      ],
      "name": "transferOwnership",
      "outputs": [],
      "stateMutability": "nonpayable",
      "type": "function"
    },
    {
      "inputs": [
        {
          "internalType": "address",
          "name": "to",
          "type": "address"
        },
        {
          "internalType": "uint256",
          "name": "tokenId",
          "type": "uint256"
        }
      ],
      "name": "mint",
      "outputs": [],
      "stateMutability": "nonpayable",
      "type": "function"
    },
    {
      "inputs": [
        {
          "internalType": "uint256",
          "name": "tokenId",
          "type": "uint256"
        },
        {
          "internalType": "bool",
          "name": "eligibility",
          "type": "bool"
        }
      ],
      "name": "updateAirdropEligibility",
      "outputs": [],
      "stateMutability": "nonpayable",
      "type": "function"
    },
    {
      "inputs": [
        {
          "internalType": "address[]",
          "name": "recipients",
          "type": "address[]"
        },
        {
          "internalType": "uint256[]",
          "name": "tokenIds",
          "type": "uint256[]"
        }
      ],
      "name": "airdrop",
      "outputs": [],
      "stateMutability": "nonpayable",
      "type": "function"
    }
  ],
  "bytecode": "0x60806040523480156200001157600080fd5b5060405162001b4438038062001b44833981016040819052620000349162000237565b8151829082906200004d906000906020850190620000de565b50805162000063906001906020840190620000de565b505050620000806200007a6200008860201b60201c565b6200008c565b5050620002f1565b3390565b600680546001600160a01b038381166001600160a01b0319831681179093556040519116919082907f8be0079c531659141344cd1fd0a4f28419497f9722a3daafe3b4186f6b6457e090600090a35050565b828054620000ec906200029e565b90600052602060002090601f0160209004810192826200011057600085556200015b565b82601f106200012b57805160ff19168380011785556200015b565b828001600101855582156200015b579182015b828111156200015b5782518255916020019190600101906200013e565b50620001699291506200016d565b5090565b5b808211156200016957600081556001016200016e565b600082601f83011262000195578081fd5b81516001600160401b0380821115620001b257620001b2620002db565b604051601f8301601f19908116603f01168101908282118183101715620001dd57620001dd620002db565b81604052838152602092508683858801011115620001f9578485fd5b8491505b838210156200021c5785820183015181830184015290820190620001fd565b838211156200022d57848385830101525b9695505050505050565b600080604083850312156200024a578182fd5b82516001600160401b038082111562000261578384fd5b6200026f8683870162000184565b9350602085015191508082111562000285578283fd5b50620002948582860162000184565b9150509250929050565b600181811c90821680620002b357607f821691505b60208210811415620002d557634e487b7160e01b600052602260045260246000fd5b50919050565b634e487b7160e01b600052604160045260246000fd5b61184380620003016000396000f3fe608060405234801561001057600080fd5b50600436106101215760003560e01c806370a08231116100ad578063b88d4fde11610071578063b88d4fde14610257578063c176042c1461026a578063c87b56dd1461027d578063e985e9c514610290578063f2fde38b146102cc57600080fd5b806370a0823114610202578063715018a6146102235780638da5cb5b1461022b57806395d89b411461023c578063a22cb4651461024457600080fd5b806323b872dd116100f457806323b872dd146101a357806340c10f19146101b657806342842e0e146101c95780636352211e146101dc57806367243482146101ef57600080fd5b806301ffc9a71461012657806306fdde031461014e578063081812fc14610163578063095ea7b31461018e575b600080fd5b610139610134366004611552565b6102df565b60405190151581526020015b60405180910390f35b610156610331565b604051610145919061165c565b61017661017136600461158a565b6103c3565b6040516001600160a01b039091168152602001610145565b6101a161019c3660046114c0565b6103ea565b005b6101a16101b1366004611387565b610505565b6101a16101c43660046114c0565b610536565b6101a16101d7366004611387565b610564565b6101766101ea36600461158a565b61057f565b6101a16101fd3660046114e9565b6105df565b61021561021036600461133b565b6107b5565b604051908152602001610145565b6101a161083b565b6006546001600160a01b0316610176565b61015661084f565b6101a1610252366004611497565b61085e565b6101a16102653660046113c2565b61086d565b6101a16102783660046115a2565b6108a5565b61015661028b36600461158a565b61095f565b61013961029e366004611355565b6001600160a01b03918216600090815260056020908152604080832093909416825291909152205460ff1690565b6101a16102da36600461133b565b6109d3565b60006001600160e01b031982166380ac58cd60e01b148061031057506001600160e01b03198216635b5e139f60e01b145b8061032b57506301ffc9a760e01b6001600160e01b03198316145b92915050565b6060600080546103409061177f565b80601f016020809104026020016040519081016040528092919081815260200182805461036c9061177f565b80156103b95780601f1061038e576101008083540402835291602001916103b9565b820191906000526020600020905b81548152906001019060200180831161039c57829003601f168201915b5050505050905090565b60006103ce82610a4c565b506000908152600460205260409020546001600160a01b031690565b60006103f58261057f565b9050806001600160a01b0316836001600160a01b031614156104685760405162461bcd60e51b815260206004820152602160248201527f4552433732313a20617070726f76616c20746f2063757272656e74206f776e656044820152603960f91b60648201526084015b60405180910390fd5b336001600160a01b03821614806104845750610484813361029e565b6104f65760405162461bcd60e51b815260206004820152603d60248201527f4552433732313a20617070726f76652063616c6c6572206973206e6f7420746f60448201527f6b656e206f776e6572206f7220617070726f76656420666f7220616c6c000000606482015260840161045f565b6105008383610aab565b505050565b61050f3382610b19565b61052b5760405162461bcd60e51b815260040161045f9061166f565b610500838383610b98565b61053e610cfc565b6105488282610d56565b6000908152600760205260409020805460ff1916600117905550565b6105008383836040518060200160405280600081525061086d565b6000818152600260205260408120546001600160a01b03168061032b5760405162461bcd60e51b8152602060048201526018602482015277115490cdcc8c4e881a5b9d985b1a59081d1bdad95b88125160421b604482015260640161045f565b6105e7610cfc565b82811461062e5760405162461bcd60e51b8152602060048201526015602482015274496e76616c696420696e707574206c656e6774687360581b604482015260640161045f565b60005b838110156107ae57600083838381811061065b57634e487b7160e01b600052603260045260246000fd5b905060200201359050610685816000908152600260205260409020546001600160a01b0316151590565b6106c85760405162461bcd60e51b8152602060048201526014602482015273151bdad95b88191bd95cc81b9bdd08195e1a5cdd60621b604482015260640161045f565b60008181526007602052604090205460ff166107265760405162461bcd60e51b815260206004820152601e60248201527f546f6b656e206e6f7420656c696769626c6520666f722061697264726f700000604482015260640161045f565b61078661073b6006546001600160a01b031690565b87878581811061075b57634e487b7160e01b600052603260045260246000fd5b9050602002016020810190610770919061133b565b8360405180602001604052806000815250610ee1565b6000908152600760205260409020805460ff19169055806107a6816117ba565b915050610631565b5050505050565b60006001600160a01b03821661081f5760405162461bcd60e51b815260206004820152602960248201527f4552433732313a2061646472657373207a65726f206973206e6f7420612076616044820152683634b21037bbb732b960b91b606482015260840161045f565b506001600160a01b031660009081526003602052604090205490565b610843610cfc565b61084d6000610f14565b565b6060600180546103409061177f565b610869338383610f66565b5050565b6108773383610b19565b6108935760405162461bcd60e51b815260040161045f9061166f565b61089f84848484610ee1565b50505050565b6108ad610cfc565b6000828152600260205260409020546001600160a01b03166109085760405162461bcd60e51b8152602060048201526014602482015273151bdad95b88191bd95cc81b9bdd08195e1a5cdd60621b604482015260640161045f565b600082815260076020908152604091829020805460ff1916841515908117909155915191825283917ffbcdd38c5ac56dd6cf67799cec8f72c60d5edefc9204a8c5f1282d2751216193910160405180910390a25050565b606061096a82610a4c565b600061098160408051602081019091526000815290565b905060008151116109a157604051806020016040528060008152506109cc565b806109ab84611035565b6040516020016109bc9291906115f0565b6040516020818303038152906040525b9392505050565b6109db610cfc565b6001600160a01b038116610a405760405162461bcd60e51b815260206004820152602660248201527f4f776e61626c653a206e6577206f776e657220697320746865207a65726f206160448201526564647265737360d01b606482015260840161045f565b610a4981610f14565b50565b6000818152600260205260409020546001600160a01b0316610a495760405162461bcd60e51b8152602060048201526018602482015277115490cdcc8c4e881a5b9d985b1a59081d1bdad95b88125160421b604482015260640161045f565b600081815260046020526040902080546001600160a01b0319166001600160a01b0384169081179091558190610ae08261057f565b6001600160a01b03167f8c5be1e5ebec7d5bd14f71427d1e84f3dd0314c0f7b2291e5b200ac8c7c3b92560405160405180910390a45050565b600080610b258361057f565b9050806001600160a01b0316846001600160a01b03161480610b6c57506001600160a01b0380821660009081526005602090815260408083209388168352929052205460ff165b80610b905750836001600160a01b0316610b85846103c3565b6001600160a01b0316145b949350505050565b826001600160a01b0316610bab8261057f565b6001600160a01b031614610bd15760405162461bcd60e51b815260040161045f9061170e565b6001600160a01b038216610c335760405162461bcd60e51b8152602060048201526024808201527f4552433732313a207472616e7366657220746f20746865207a65726f206164646044820152637265737360e01b606482015260840161045f565b826001600160a01b0316610c468261057f565b6001600160a01b031614610c6c5760405162461bcd60e51b815260040161045f9061170e565b600081815260046020908152604080832080546001600160a01b03199081169091556001600160a01b0387811680865260038552838620805460001901905590871680865283862080546001019055868652600290945282852080549092168417909155905184937fddf252ad1be2c89b69c2b068fc378daa952ba7f163c4a11628f55a4df523b3ef91a4505050565b6006546001600160a01b0316331461084d5760405162461bcd60e51b815260206004820181905260248201527f4f776e61626c653a2063616c6c6572206973206e6f7420746865206f776e6572604482015260640161045f565b6001600160a01b038216610dac5760405162461bcd60e51b815260206004820181905260248201527f4552433732313a206d696e7420746f20746865207a65726f2061646472657373604482015260640161045f565b6000818152600260205260409020546001600160a01b031615610e115760405162461bcd60e51b815260206004820152601c60248201527f4552433732313a20746f6b656e20616c7265616479206d696e74656400000000604482015260640161045f565b6000818152600260205260409020546001600160a01b031615610e765760405162461bcd60e51b815260206004820152601c60248201527f4552433732313a20746f6b656e20616c7265616479206d696e74656400000000604482015260640161045f565b6001600160a01b038216600081815260036020908152604080832080546001019055848352600290915280822080546001600160a01b0319168417905551839291907fddf252ad1be2c89b69c2b068fc378daa952ba7f163c4a11628f55a4df523b3ef908290a45050565b610eec848484610b98565b610ef8848484846110e0565b61089f5760405162461bcd60e51b815260040161045f906116bc565b600680546001600160a01b038381166001600160a01b0319831681179093556040519116919082907f8be0079c531659141344cd1fd0a4f28419497f9722a3daafe3b4186f6b6457e090600090a35050565b816001600160a01b0316836001600160a01b03161415610fc85760405162461bcd60e51b815260206004820152601960248201527f4552433732313a20617070726f766520746f2063616c6c657200000000000000604482015260640161045f565b6001600160a01b03838116600081815260056020908152604080832094871680845294825291829020805460ff191686151590811790915591519182527f17307eab39ab6107e8899845ad3d59bd9653f200f220920489ca2b5937696c31910160405180910390a3505050565b60606000611042836111ed565b600101905060008167ffffffffffffffff81111561107057634e487b7160e01b600052604160045260246000fd5b6040519080825280601f01601f19166020018201604052801561109a576020820181803683370190505b5090508181016020015b600019016f181899199a1a9b1b9c1cb0b131b232b360811b600a86061a8153600a85049450846110d3576110d8565b6110a4565b509392505050565b60006001600160a01b0384163b156111e257604051630a85bd0160e11b81526001600160a01b0385169063150b7a029061112490339089908890889060040161161f565b602060405180830381600087803b15801561113e57600080fd5b505af192505050801561116e575060408051601f3d908101601f1916820190925261116b9181019061156e565b60015b6111c8573d80801561119c576040519150601f19603f3d011682016040523d82523d6000602084013e6111a1565b606091505b5080516111c05760405162461bcd60e51b815260040161045f906116bc565b805181602001fd5b6001600160e01b031916630a85bd0160e11b149050610b90565b506001949350505050565b60008072184f03e93ff9f4daa797ed6e38ed64bf6a1f0160401b831061122c5772184f03e93ff9f4daa797ed6e38ed64bf6a1f0160401b830492506040015b6d04ee2d6d415b85acef81000000008310611258576d04ee2d6d415b85acef8100000000830492506020015b662386f26fc10000831061127657662386f26fc10000830492506010015b6305f5e100831061128e576305f5e100830492506008015b61271083106112a257612710830492506004015b606483106112b4576064830492506002015b600a831061032b5760010192915050565b80356001600160a01b03811681146112dc57600080fd5b919050565b60008083601f8401126112f2578081fd5b50813567ffffffffffffffff811115611309578182fd5b6020830191508360208260051b850101111561132457600080fd5b9250929050565b803580151581146112dc57600080fd5b60006020828403121561134c578081fd5b6109cc826112c5565b60008060408385031215611367578081fd5b611370836112c5565b915061137e602084016112c5565b90509250929050565b60008060006060848603121561139b578081fd5b6113a4846112c5565b92506113b2602085016112c5565b9150604084013590509250925092565b600080600080608085870312156113d7578081fd5b6113e0856112c5565b93506113ee602086016112c5565b925060408501359150606085013567ffffffffffffffff80821115611411578283fd5b818701915087601f830112611424578283fd5b813581811115611436576114366117e1565b604051601f8201601f19908116603f0116810190838211818310171561145e5761145e6117e1565b816040528281528a6020848701011115611476578586fd5b82602086016020830137918201602001949094529598949750929550505050565b600080604083850312156114a9578182fd5b6114b2836112c5565b915061137e6020840161132b565b600080604083850312156114d2578182fd5b6114db836112c5565b946020939093013593505050565b600080600080604085870312156114fe578384fd5b843567ffffffffffffffff80821115611515578586fd5b611521888389016112e1565b90965094506020870135915080821115611539578384fd5b50611546878288016112e1565b95989497509550505050565b600060208284031215611563578081fd5b81356109cc816117f7565b60006020828403121561157f578081fd5b81516109cc816117f7565b60006020828403121561159b578081fd5b5035919050565b600080604083850312156115b4578182fd5b8235915061137e6020840161132b565b600081518084526115dc816020860160208601611753565b601f01601f19169290920160200192915050565b60008351611602818460208801611753565b835190830190611616818360208801611753565b01949350505050565b6001600160a01b0385811682528416602082015260408101839052608060608201819052600090611652908301846115c4565b9695505050505050565b6020815260006109cc60208301846115c4565b6020808252602d908201527f4552433732313a2063616c6c6572206973206e6f7420746f6b656e206f776e6560408201526c1c881bdc88185c1c1c9bdd9959609a1b606082015260800190565b60208082526032908201527f4552433732313a207472616e7366657220746f206e6f6e20455243373231526560408201527131b2b4bb32b91034b6b83632b6b2b73a32b960711b606082015260800190565b60208082526025908201527f4552433732313a207472616e736665722066726f6d20696e636f72726563742060408201526437bbb732b960d91b606082015260800190565b60005b8381101561176e578181015183820152602001611756565b8381111561089f5750506000910152565b600181811c9082168061179357607f821691505b602082108114156117b457634e487b7160e01b600052602260045260246000fd5b50919050565b60006000198214156117da57634e487b7160e01b81526011600452602481fd5b5060010190565b634e487b7160e01b600052604160045260246000fd5b6001600160e01b031981168114610a4957600080fdfea26469706673582212209c9274556a01a30ee096de8aa8a8f463c16b0a789bfa20e10e3a381419678aa364736f6c63430008040033",
  "immutableReferences": {},
  "source": "// SPDX-License-Identifier: MIT\r\npragma solidity ^0.8.4;\r\n\r\nimport \"@openzeppelin/contracts/token/ERC721/ERC721.sol\";\r\nimport \"@openzeppelin/contracts/access/Ownable.sol\";\r\n\r\ncontract KingPinNFT is ERC721, Ownable {\r\n    mapping(uint256 => bool) private _airdropEligibility;\r\n\r\n    event AirdropEligibilityUpdated(uint256 indexed tokenId, bool eligibility);\r\n\r\n    constructor(string memory name, string memory symbol) ERC721(name, symbol) {}\r\n\r\n    function mint(address to, uint256 tokenId) external onlyOwner {\r\n        _mint(to, tokenId);\r\n        _airdropEligibility[tokenId] = true;\r\n    }\r\n\r\n    function updateAirdropEligibility(uint256 tokenId, bool eligibility) external onlyOwner {\r\n        require(_exists(tokenId), \"Token does not exist\");\r\n        _airdropEligibility[tokenId] = eligibility;\r\n        emit AirdropEligibilityUpdated(tokenId, eligibility);\r\n    }\r\n\r\n    function airdrop(address[] calldata recipients, uint256[] calldata tokenIds) external onlyOwner {\r\n        require(recipients.length == tokenIds.length, \"Invalid input lengths\");\r\n\r\n        for (uint256 i = 0; i < recipients.length; i++) {\r\n            uint256 tokenId = tokenIds[i];\r\n            require(_exists(tokenId), \"Token does not exist\");\r\n            require(_airdropEligibility[tokenId], \"Token not eligible for airdrop\");\r\n\r\n            _safeTransfer(owner(), recipients[i], tokenId, \"\");\r\n            _airdropEligibility[tokenId] = false;\r\n        }\r\n    }\r\n}",
  "sourcePath": "C:\\Users\\alifa\\Downloads\\dapp\\kingpin_token\\contracts\\Kingpin.sol",
  "compiler": {
    "name": "solc",
    "version": "0.8.4+commit.c7e474f2.Emscripten.clang"
  },
  "schemaVersion": "3.4.14",
  "updatedAt": "2023-07-12T21:54:57.619Z",
  "networkType": "ethereum",
  "devdoc": {
    "kind": "dev",
    "methods": {
      "approve(address,uint256)": {
        "details": "See {IERC721-approve}."
      },
      "balanceOf(address)": {
        "details": "See {IERC721-balanceOf}."
      },
      "getApproved(uint256)": {
        "details": "See {IERC721-getApproved}."
      },
      "isApprovedForAll(address,address)": {
        "details": "See {IERC721-isApprovedForAll}."
      },
      "name()": {
        "details": "See {IERC721Metadata-name}."
      },
      "owner()": {
        "details": "Returns the address of the current owner."
      },
      "ownerOf(uint256)": {
        "details": "See {IERC721-ownerOf}."
      },
      "renounceOwnership()": {
        "details": "Leaves the contract without owner. It will not be possible to call `onlyOwner` functions. Can only be called by the current owner. NOTE: Renouncing ownership will leave the contract without an owner, thereby disabling any functionality that is only available to the owner."
      },
      "safeTransferFrom(address,address,uint256)": {
        "details": "See {IERC721-safeTransferFrom}."
      },
      "safeTransferFrom(address,address,uint256,bytes)": {
        "details": "See {IERC721-safeTransferFrom}."
      },
      "setApprovalForAll(address,bool)": {
        "details": "See {IERC721-setApprovalForAll}."
      },
      "supportsInterface(bytes4)": {
        "details": "See {IERC165-supportsInterface}."
      },
      "symbol()": {
        "details": "See {IERC721Metadata-symbol}."
      },
      "tokenURI(uint256)": {
        "details": "See {IERC721Metadata-tokenURI}."
      },
      "transferFrom(address,address,uint256)": {
        "details": "See {IERC721-transferFrom}."
      },
      "transferOwnership(address)": {
        "details": "Transfers ownership of the contract to a new account (`newOwner`). Can only be called by the current owner."
      }
    },
    "version": 1
  },
  "userdoc": {
    "kind": "user",
    "methods": {},
    "version": 1
  }
}